:100000000C945C000C9479000C9479000C947900A9
:100010000C9479000C9479000C9479000C9479007C
:100020000C9479000C9479000C9479000C9479006C
:100030000C9479000C9479000C9479000C9479005C
:100040000C94BB000C9479000C9479000C9479000A
:100050000C9479000C9479000C9479000C9479003C
:100060000C9479000C947900000000080002010053
:100070000003040700000000000000000102040863
:100080001020408001020408102001020408102002
:10009000040404040404040402020202020203032E
:1000A0000303030300000000250028002B000000CC
:1000B0000000240027002A0011241FBECFEFD8E043
:1000C000DEBFCDBF11E0A0E0B1E0E6E0F4E002C0A9
:1000D00005900D92A230B107D9F721E0A2E0B1E07E
:1000E00001C01D92AD30B207E1F70E94AC000C9444
:1000F00001020C940000089561E082E00E949201E8
:100100006EE0809102010C949201CF92DF92EF9207
:10011000FF92809102010E944C01853F914040F482
:1001200060E082E0FF90EF90DF90CF900C94CB01E5
:1001300061E082E00E94CB010E9405016B017C011D
:100140000E9405016C197D098E099F09603375476E
:1001500081059105A8F3E4CF0E9411010E947B0064
:100160000E947C00C0E0D0E00E9485002097E1F36F
:100170000E940000F9CF1F920F920FB60F92112428
:100180002F933F938F939F93AF93BF9380910501DC
:1001900090910601A0910701B091080130910401EE
:1001A00023E0230F2D3720F40196A11DB11D05C0BA
:1001B00026E8230F0296A11DB11D20930401809310
:1001C000050190930601A0930701B0930801809167
:1001D000090190910A01A0910B01B0910C010196C7
:1001E000A11DB11D8093090190930A01A0930B01F9
:1001F000B0930C01BF91AF919F918F913F912F913F
:100200000F900FBE0F901F9018952FB7F894609124
:1002100005017091060180910701909108012FBF9F
:100220000895789484B5826084BD84B5816084BD6E
:1002300085B5826085BD85B5816085BDEEE6F0E05F
:10024000808181608083E1E8F0E0108280818260BB
:100250008083808181608083E0E8F0E0808181603C
:100260008083E1EBF0E0808184608083E0EBF0E06C
:10027000808181608083EAE7F0E080818460808310
:1002800080818260808380818160808380818068BA
:1002900080831092C10008958E3008F08E508770D0
:1002A0002091000190E4299F90011124822B8093DA
:1002B0007C0080917A00806480937A0080917A003B
:1002C00086FDFCCF809178002091790090E0922B00
:1002D0000895833081F028F4813099F08230A1F0C4
:1002E00008958730A9F08830B9F08430D1F4809136
:1002F00080008F7D03C0809180008F778093800085
:10030000089584B58F7702C084B58F7D84BD08952C
:100310008091B0008F7703C08091B0008F7D809373
:10032000B0000895CF93DF9390E0FC01E458FF4FB5
:100330002491FC01E057FF4F8491882349F190E01C
:10034000880F991FFC01E255FF4FA591B4918C5580
:100350009F4FFC01C591D4919FB7611108C0F894DB
:100360008C91209582238C93888182230AC06230ED
:1003700051F4F8948C91322F309583238C9388819B
:10038000822B888304C0F8948C91822B8C939FBF1E
:10039000DF91CF9108950F931F93CF93DF931F9217
:1003A000CDB7DEB7282F30E0F901E859FF4F84912F
:1003B000F901E458FF4F1491F901E057FF4F049100
:1003C0000023C9F0882321F069830E9469016981B3
:1003D000E02FF0E0EE0FFF1FEC55FF4FA591B49119
:1003E0009FB7F8948C91611103C01095812301C0CF
:1003F000812B8C939FBF0F90DF91CF911F910F9115
:060400000895F894FFCFFF
:020406000100F3
:00000001FF
